{
  "_format": "hh-sol-artifact-1",
  "contractName": "Xalary",
  "sourceName": "contracts/Xalary.sol",
  "abi": [
    {
      "inputs": [],
      "name": "deployFixedRateAgreement",
      "outputs": [
        {
          "internalType": "bool",
          "name": "",
          "type": "bool"
        }
      ],
      "stateMutability": "pure",
      "type": "function"
    }
  ],
  "bytecode": "0x608060405234801561001057600080fd5b5060b88061001f6000396000f3fe6080604052348015600f57600080fd5b506004361060285760003560e01c80636a02e29c14602d575b600080fd5b60336047565b604051603e91906069565b60405180910390f35b60006001905090565b60008115159050919050565b6063816050565b82525050565b6000602082019050607c6000830184605c565b9291505056fea2646970667358221220ed4a79246e35edcfee8150e40421614009b205d72008ae0653ec777fe09861e664736f6c63430008180033",
  "linkReferences": {},
  "deployedLinkReferences": {}
}