{
  "_format": "hh-sol-artifact-1",
  "contractName": "FixedRateAgreement",
  "sourceName": "contracts/FixedRateAgreement.sol",
  "abi": [
    {
      "inputs": [
        {
          "internalType": "string",
          "name": "_employerId",
          "type": "string"
        },
        {
          "internalType": "string",
          "name": "_employeeId",
          "type": "string"
        },
        {
          "internalType": "address",
          "name": "_employerAddress",
          "type": "address"
        },
        {
          "internalType": "address",
          "name": "_currency",
          "type": "address"
        },
        {
          "internalType": "uint256",
          "name": "_fixedPayment",
          "type": "uint256"
        }
      ],
      "stateMutability": "nonpayable",
      "type": "constructor"
    },
    {
      "anonymous": false,
      "inputs": [
        {
          "indexed": true,
          "internalType": "address",
          "name": "employeeAddress",
          "type": "address"
        },
        {
          "indexed": true,
          "internalType": "address",
          "name": "employerAddress",
          "type": "address"
        }
      ],
      "name": "FixedPaymentMade",
      "type": "event"
    },
    {
      "anonymous": false,
      "inputs": [
        {
          "indexed": true,
          "internalType": "address",
          "name": "agreementAddress",
          "type": "address"
        }
      ],
      "name": "PaymentMade",
      "type": "event"
    },
    {
      "inputs": [],
      "name": "agreementStatus",
      "outputs": [
        {
          "internalType": "enum Agreement.AgreementStatus",
          "name": "",
          "type": "uint8"
        }
      ],
      "stateMutability": "view",
      "type": "function"
    },
    {
      "inputs": [],
      "name": "cancel",
      "outputs": [],
      "stateMutability": "nonpayable",
      "type": "function"
    },
    {
      "inputs": [],
      "name": "close",
      "outputs": [],
      "stateMutability": "nonpayable",
      "type": "function"
    },
    {
      "inputs": [],
      "name": "contractType",
      "outputs": [
        {
          "internalType": "string",
          "name": "",
          "type": "string"
        }
      ],
      "stateMutability": "view",
      "type": "function"
    },
    {
      "inputs": [],
      "name": "currency",
      "outputs": [
        {
          "internalType": "address",
          "name": "",
          "type": "address"
        }
      ],
      "stateMutability": "view",
      "type": "function"
    },
    {
      "inputs": [
        {
          "internalType": "address",
          "name": "_paymentAddress",
          "type": "address"
        }
      ],
      "name": "employeeEnterContract",
      "outputs": [],
      "stateMutability": "nonpayable",
      "type": "function"
    },
    {
      "inputs": [],
      "name": "employeeId",
      "outputs": [
        {
          "internalType": "string",
          "name": "",
          "type": "string"
        }
      ],
      "stateMutability": "view",
      "type": "function"
    },
    {
      "inputs": [],
      "name": "employerAddress",
      "outputs": [
        {
          "internalType": "address",
          "name": "",
          "type": "address"
        }
      ],
      "stateMutability": "view",
      "type": "function"
    },
    {
      "inputs": [],
      "name": "employerId",
      "outputs": [
        {
          "internalType": "string",
          "name": "",
          "type": "string"
        }
      ],
      "stateMutability": "view",
      "type": "function"
    },
    {
      "inputs": [],
      "name": "paymentAddress",
      "outputs": [
        {
          "internalType": "address",
          "name": "",
          "type": "address"
        }
      ],
      "stateMutability": "view",
      "type": "function"
    },
    {
      "inputs": [],
      "name": "paymentStatus",
      "outputs": [
        {
          "internalType": "enum FixedRateAgreement.PaymentStatus",
          "name": "",
          "type": "uint8"
        }
      ],
      "stateMutability": "view",
      "type": "function"
    },
    {
      "inputs": [],
      "name": "sendPayment",
      "outputs": [],
      "stateMutability": "nonpayable",
      "type": "function"
    },
    {
      "inputs": [],
      "name": "suspend",
      "outputs": [],
      "stateMutability": "nonpayable",
      "type": "function"
    },
    {
      "inputs": [],
      "name": "withdrawFunds",
      "outputs": [],
      "stateMutability": "view",
      "type": "function"
    }
  ],
  "bytecode": "0x60806040526000600760006101000a81548160ff021916908360018111156200002d576200002c6200019c565b5b02179055503480156200003f57600080fd5b5060405162001d0938038062001d098339818101604052810190620000659190620003fe565b848484846040518060400160405280600a81526020017f66697865642072617465000000000000000000000000000000000000000000008152508460009081620000b0919062000705565b508360019081620000c2919062000705565b5082600260006101000a81548173ffffffffffffffffffffffffffffffffffffffff021916908373ffffffffffffffffffffffffffffffffffffffff16021790555081600460006101000a81548173ffffffffffffffffffffffffffffffffffffffff021916908373ffffffffffffffffffffffffffffffffffffffff1602179055506000600460146101000a81548160ff021916908360048111156200016e576200016d6200019c565b5b0217905550806005908162000184919062000705565b505050505050806006819055505050505050620007ec565b7f4e487b7100000000000000000000000000000000000000000000000000000000600052602160045260246000fd5b6000604051905090565b600080fd5b600080fd5b600080fd5b600080fd5b6000601f19601f8301169050919050565b7f4e487b7100000000000000000000000000000000000000000000000000000000600052604160045260246000fd5b6200023482620001e9565b810181811067ffffffffffffffff82111715620002565762000255620001fa565b5b80604052505050565b60006200026b620001cb565b905062000279828262000229565b919050565b600067ffffffffffffffff8211156200029c576200029b620001fa565b5b620002a782620001e9565b9050602081019050919050565b60005b83811015620002d4578082015181840152602081019050620002b7565b60008484015250505050565b6000620002f7620002f1846200027e565b6200025f565b905082815260208101848484011115620003165762000315620001e4565b5b62000323848285620002b4565b509392505050565b600082601f830112620003435762000342620001df565b5b815162000355848260208601620002e0565b91505092915050565b600073ffffffffffffffffffffffffffffffffffffffff82169050919050565b60006200038b826200035e565b9050919050565b6200039d816200037e565b8114620003a957600080fd5b50565b600081519050620003bd8162000392565b92915050565b6000819050919050565b620003d881620003c3565b8114620003e457600080fd5b50565b600081519050620003f881620003cd565b92915050565b600080600080600060a086880312156200041d576200041c620001d5565b5b600086015167ffffffffffffffff8111156200043e576200043d620001da565b5b6200044c888289016200032b565b955050602086015167ffffffffffffffff81111562000470576200046f620001da565b5b6200047e888289016200032b565b94505060406200049188828901620003ac565b9350506060620004a488828901620003ac565b9250506080620004b788828901620003e7565b9150509295509295909350565b600081519050919050565b7f4e487b7100000000000000000000000000000000000000000000000000000000600052602260045260246000fd5b600060028204905060018216806200051757607f821691505b6020821081036200052d576200052c620004cf565b5b50919050565b60008190508160005260206000209050919050565b60006020601f8301049050919050565b600082821b905092915050565b600060088302620005977fffffffffffffffffffffffffffffffffffffffffffffffffffffffffffffffff8262000558565b620005a3868362000558565b95508019841693508086168417925050509392505050565b6000819050919050565b6000620005e6620005e0620005da84620003c3565b620005bb565b620003c3565b9050919050565b6000819050919050565b6200060283620005c5565b6200061a6200061182620005ed565b84845462000565565b825550505050565b600090565b6200063162000622565b6200063e818484620005f7565b505050565b5b8181101562000666576200065a60008262000627565b60018101905062000644565b5050565b601f821115620006b5576200067f8162000533565b6200068a8462000548565b810160208510156200069a578190505b620006b2620006a98562000548565b83018262000643565b50505b505050565b600082821c905092915050565b6000620006da60001984600802620006ba565b1980831691505092915050565b6000620006f58383620006c7565b9150826002028217905092915050565b6200071082620004c4565b67ffffffffffffffff8111156200072c576200072b620001fa565b5b620007388254620004fe565b620007458282856200066a565b600060209050601f8311600181146200077d576000841562000768578287015190505b620007748582620006e7565b865550620007e4565b601f1984166200078d8662000533565b60005b82811015620007b75784890151825560018201915060208501945060208101905062000790565b86831015620007d75784890151620007d3601f891682620006c7565b8355505b6001600288020188555050505b505050505050565b61150d80620007fc6000396000f3fe608060405234801561001057600080fd5b50600436106100ea5760003560e01c8063900feb3b1161008c578063e5a6b10f11610066578063e5a6b10f146101dd578063e6400bbe146101fb578063ea8a1af014610205578063ef838f881461020f576100ea565b8063900feb3b1461018557806398b9f004146101a3578063cb2ef6f7146101bf576100ea565b806343d726d6116100c857806343d726d614610135578063633423be1461013f5780636720ceb11461015d57806384ab30a514610167576100ea565b80630d0175a9146100ef57806310ccb04c1461010d57806324600fc31461012b575b600080fd5b6100f761022d565b6040516101049190610dfe565b60405180910390f35b610115610253565b6040516101229190610e90565b60405180910390f35b610133610266565b005b61013d6102f8565b005b61014761042a565b6040516101549190610dfe565b60405180910390f35b610165610450565b005b61016f610731565b60405161017c9190610f3b565b60405180910390f35b61018d6107bf565b60405161019a9190610fa5565b60405180910390f35b6101bd60048036038101906101b89190610ff1565b6107d2565b005b6101c76108b7565b6040516101d49190610f3b565b60405180910390f35b6101e5610945565b6040516101f29190610dfe565b60405180910390f35b61020361096b565b005b61020d610b13565b005b610217610c46565b6040516102249190610f3b565b60405180910390f35b600260009054906101000a900473ffffffffffffffffffffffffffffffffffffffff1681565b600460149054906101000a900460ff1681565b600260009054906101000a900473ffffffffffffffffffffffffffffffffffffffff1673ffffffffffffffffffffffffffffffffffffffff163373ffffffffffffffffffffffffffffffffffffffff16146102f6576040517f08c379a00000000000000000000000000000000000000000000000000000000081526004016102ed90611090565b60405180910390fd5b565b600260009054906101000a900473ffffffffffffffffffffffffffffffffffffffff1673ffffffffffffffffffffffffffffffffffffffff163373ffffffffffffffffffffffffffffffffffffffff1614610388576040517f08c379a000000000000000000000000000000000000000000000000000000000815260040161037f90611090565b60405180910390fd5b6003600481111561039c5761039b610e19565b5b600460149054906101000a900460ff1660048111156103be576103bd610e19565b5b036103fe576040517f08c379a00000000000000000000000000000000000000000000000000000000081526004016103f590611122565b60405180910390fd5b60048060146101000a81548160ff0219169083600481111561042357610422610e19565b5b0217905550565b600360009054906101000a900473ffffffffffffffffffffffffffffffffffffffff1681565b600260009054906101000a900473ffffffffffffffffffffffffffffffffffffffff1673ffffffffffffffffffffffffffffffffffffffff163373ffffffffffffffffffffffffffffffffffffffff16146104e0576040517f08c379a00000000000000000000000000000000000000000000000000000000081526004016104d790611090565b60405180910390fd5b600160048111156104f4576104f3610e19565b5b600460149054906101000a900460ff16600481111561051657610515610e19565b5b14610556576040517f08c379a000000000000000000000000000000000000000000000000000000000815260040161054d906111b4565b60405180910390fd5b60018081111561056957610568610e19565b5b600760009054906101000a900460ff16600181111561058b5761058a610e19565b5b036105cb576040517f08c379a00000000000000000000000000000000000000000000000000000000081526004016105c290611220565b60405180910390fd5b6105f9600360009054906101000a900473ffffffffffffffffffffffffffffffffffffffff16600654610cd4565b6001600760006101000a81548160ff0219169083600181111561061f5761061e610e19565b5b021790555060048060146101000a81548160ff0219169083600481111561064957610648610e19565b5b02179055503073ffffffffffffffffffffffffffffffffffffffff167f960f80c1468168314e9bb3daa45c4819ef0a7969615e253bbc73477997b1eb5860405160405180910390a2600260009054906101000a900473ffffffffffffffffffffffffffffffffffffffff1673ffffffffffffffffffffffffffffffffffffffff16600360009054906101000a900473ffffffffffffffffffffffffffffffffffffffff1673ffffffffffffffffffffffffffffffffffffffff167f80cc066594d46a1c222dffb998d2a0b113cba551c911573a088260abc6cbebd660405160405180910390a3565b6001805461073e9061126f565b80601f016020809104026020016040519081016040528092919081815260200182805461076a9061126f565b80156107b75780601f1061078c576101008083540402835291602001916107b7565b820191906000526020600020905b81548152906001019060200180831161079a57829003601f168201915b505050505081565b600760009054906101000a900460ff1681565b600060048111156107e6576107e5610e19565b5b600460149054906101000a900460ff16600481111561080857610807610e19565b5b14610848576040517f08c379a000000000000000000000000000000000000000000000000000000000815260040161083f90611312565b60405180910390fd5b80600360006101000a81548173ffffffffffffffffffffffffffffffffffffffff021916908373ffffffffffffffffffffffffffffffffffffffff1602179055506001600460146101000a81548160ff021916908360048111156108af576108ae610e19565b5b021790555050565b600580546108c49061126f565b80601f01602080910402602001604051908101604052809291908181526020018280546108f09061126f565b801561093d5780601f106109125761010080835404028352916020019161093d565b820191906000526020600020905b81548152906001019060200180831161092057829003601f168201915b505050505081565b600460009054906101000a900473ffffffffffffffffffffffffffffffffffffffff1681565b600260009054906101000a900473ffffffffffffffffffffffffffffffffffffffff1673ffffffffffffffffffffffffffffffffffffffff163373ffffffffffffffffffffffffffffffffffffffff16146109fb576040517f08c379a00000000000000000000000000000000000000000000000000000000081526004016109f290611090565b60405180910390fd5b60036004811115610a0f57610a0e610e19565b5b600460149054906101000a900460ff166004811115610a3157610a30610e19565b5b03610a71576040517f08c379a0000000000000000000000000000000000000000000000000000000008152600401610a6890611122565b60405180910390fd5b600480811115610a8457610a83610e19565b5b600460149054906101000a900460ff166004811115610aa657610aa5610e19565b5b03610ae6576040517f08c379a0000000000000000000000000000000000000000000000000000000008152600401610add906113a4565b60405180910390fd5b6002600460146101000a81548160ff02191690836004811115610b0c57610b0b610e19565b5b0217905550565b600260009054906101000a900473ffffffffffffffffffffffffffffffffffffffff1673ffffffffffffffffffffffffffffffffffffffff163373ffffffffffffffffffffffffffffffffffffffff1614610ba3576040517f08c379a0000000000000000000000000000000000000000000000000000000008152600401610b9a90611090565b60405180910390fd5b60036004811115610bb757610bb6610e19565b5b600460149054906101000a900460ff166004811115610bd957610bd8610e19565b5b03610c19576040517f08c379a0000000000000000000000000000000000000000000000000000000008152600401610c1090611122565b60405180910390fd5b6003600460146101000a81548160ff02191690836004811115610c3f57610c3e610e19565b5b0217905550565b60008054610c539061126f565b80601f0160208091040260200160405190810160405280929190818152602001828054610c7f9061126f565b8015610ccc5780601f10610ca157610100808354040283529160200191610ccc565b820191906000526020600020905b815481529060010190602001808311610caf57829003601f168201915b505050505081565b6000600460009054906101000a900473ffffffffffffffffffffffffffffffffffffffff1690508073ffffffffffffffffffffffffffffffffffffffff1663a9059cbb84846040518363ffffffff1660e01b8152600401610d369291906113dd565b6020604051808303816000875af1158015610d55573d6000803e3d6000fd5b505050506040513d601f19601f82011682018060405250810190610d79919061143e565b610db8576040517f08c379a0000000000000000000000000000000000000000000000000000000008152600401610daf906114b7565b60405180910390fd5b505050565b600073ffffffffffffffffffffffffffffffffffffffff82169050919050565b6000610de882610dbd565b9050919050565b610df881610ddd565b82525050565b6000602082019050610e136000830184610def565b92915050565b7f4e487b7100000000000000000000000000000000000000000000000000000000600052602160045260246000fd5b60058110610e5957610e58610e19565b5b50565b6000819050610e6a82610e48565b919050565b6000610e7a82610e5c565b9050919050565b610e8a81610e6f565b82525050565b6000602082019050610ea56000830184610e81565b92915050565b600081519050919050565b600082825260208201905092915050565b60005b83811015610ee5578082015181840152602081019050610eca565b60008484015250505050565b6000601f19601f8301169050919050565b6000610f0d82610eab565b610f178185610eb6565b9350610f27818560208601610ec7565b610f3081610ef1565b840191505092915050565b60006020820190508181036000830152610f558184610f02565b905092915050565b60028110610f6e57610f6d610e19565b5b50565b6000819050610f7f82610f5d565b919050565b6000610f8f82610f71565b9050919050565b610f9f81610f84565b82525050565b6000602082019050610fba6000830184610f96565b92915050565b600080fd5b610fce81610ddd565b8114610fd957600080fd5b50565b600081359050610feb81610fc5565b92915050565b60006020828403121561100757611006610fc0565b5b600061101584828501610fdc565b91505092915050565b7f596f7520617265206e6f7420616c6c6f77656420746f206361727279206f757460008201527f207468697320616374696f6e0000000000000000000000000000000000000000602082015250565b600061107a602c83610eb6565b91506110858261101e565b604082019050919050565b600060208201905081810360008301526110a98161106d565b9050919050565b7f5468697320636f6e74726163742068617320616c7265616479206265656e206360008201527f616e63656c6c6564000000000000000000000000000000000000000000000000602082015250565b600061110c602883610eb6565b9150611117826110b0565b604082019050919050565b6000602082019050818103600083015261113b816110ff565b9050919050565b7f5468697320636f6e7472616374206973206e6f206c6f6e67657220616374697660008201527f6500000000000000000000000000000000000000000000000000000000000000602082015250565b600061119e602183610eb6565b91506111a982611142565b604082019050919050565b600060208201905081810360008301526111cd81611191565b9050919050565b7f5061796d656e742068617320616c7265616479206265656e2073656e74000000600082015250565b600061120a601d83610eb6565b9150611215826111d4565b602082019050919050565b60006020820190508181036000830152611239816111fd565b9050919050565b7f4e487b7100000000000000000000000000000000000000000000000000000000600052602260045260246000fd5b6000600282049050600182168061128757607f821691505b60208210810361129a57611299611240565b5b50919050565b7f5468697320636f6e7472616374206973206e6f206c6f6e6765722070656e646960008201527f6e67000000000000000000000000000000000000000000000000000000000000602082015250565b60006112fc602283610eb6565b9150611307826112a0565b604082019050919050565b6000602082019050818103600083015261132b816112ef565b9050919050565b7f5468697320636f6e74726163742068617320616c7265616479206265656e206360008201527f6c6f736564000000000000000000000000000000000000000000000000000000602082015250565b600061138e602583610eb6565b915061139982611332565b604082019050919050565b600060208201905081810360008301526113bd81611381565b9050919050565b6000819050919050565b6113d7816113c4565b82525050565b60006040820190506113f26000830185610def565b6113ff60208301846113ce565b9392505050565b60008115159050919050565b61141b81611406565b811461142657600080fd5b50565b60008151905061143881611412565b92915050565b60006020828403121561145457611453610fc0565b5b600061146284828501611429565b91505092915050565b7f546f6b656e207472616e73666572206661696c65640000000000000000000000600082015250565b60006114a1601583610eb6565b91506114ac8261146b565b602082019050919050565b600060208201905081810360008301526114d081611494565b905091905056fea264697066735822122095ba91215637cbb55e23c9b8ec444e8b4de26d9f439275dfcde37b7c9923973264736f6c63430008180033",
  "linkReferences": {},
  "deployedLinkReferences": {}
}